{
  "_format": "hh-sol-artifact-1",
  "contractName": "SimpleNFT",
  "sourceName": "contracts/SimpleNFT.sol",
  "abi": [
    {
      "inputs": [],
      "stateMutability": "nonpayable",
      "type": "constructor"
    },
    {
      "inputs": [
        {
          "internalType": "address",
          "name": "sender",
          "type": "address"
        },
        {
          "internalType": "uint256",
          "name": "tokenId",
          "type": "uint256"
        },
        {
          "internalType": "address",
          "name": "owner",
          "type": "address"
        }
      ],
      "name": "ERC721IncorrectOwner",
      "type": "error"
    },
    {
      "inputs": [
        {
          "internalType": "address",
          "name": "operator",
          "type": "address"
        },
        {
          "internalType": "uint256",
          "name": "tokenId",
          "type": "uint256"
        }
      ],
      "name": "ERC721InsufficientApproval",
      "type": "error"
    },
    {
      "inputs": [
        {
          "internalType": "address",
          "name": "approver",
          "type": "address"
        }
      ],
      "name": "ERC721InvalidApprover",
      "type": "error"
    },
    {
      "inputs": [
        {
          "internalType": "address",
          "name": "operator",
          "type": "address"
        }
      ],
      "name": "ERC721InvalidOperator",
      "type": "error"
    },
    {
      "inputs": [
        {
          "internalType": "address",
          "name": "owner",
          "type": "address"
        }
      ],
      "name": "ERC721InvalidOwner",
      "type": "error"
    },
    {
      "inputs": [
        {
          "internalType": "address",
          "name": "receiver",
          "type": "address"
        }
      ],
      "name": "ERC721InvalidReceiver",
      "type": "error"
    },
    {
      "inputs": [
        {
          "internalType": "address",
          "name": "sender",
          "type": "address"
        }
      ],
      "name": "ERC721InvalidSender",
      "type": "error"
    },
    {
      "inputs": [
        {
          "internalType": "uint256",
          "name": "tokenId",
          "type": "uint256"
        }
      ],
      "name": "ERC721NonexistentToken",
      "type": "error"
    },
    {
      "inputs": [
        {
          "internalType": "address",
          "name": "owner",
          "type": "address"
        }
      ],
      "name": "OwnableInvalidOwner",
      "type": "error"
    },
    {
      "inputs": [
        {
          "internalType": "address",
          "name": "account",
          "type": "address"
        }
      ],
      "name": "OwnableUnauthorizedAccount",
      "type": "error"
    },
    {
      "anonymous": false,
      "inputs": [
        {
          "indexed": true,
          "internalType": "address",
          "name": "owner",
          "type": "address"
        },
        {
          "indexed": true,
          "internalType": "address",
          "name": "approved",
          "type": "address"
        },
        {
          "indexed": true,
          "internalType": "uint256",
          "name": "tokenId",
          "type": "uint256"
        }
      ],
      "name": "Approval",
      "type": "event"
    },
    {
      "anonymous": false,
      "inputs": [
        {
          "indexed": true,
          "internalType": "address",
          "name": "owner",
          "type": "address"
        },
        {
          "indexed": true,
          "internalType": "address",
          "name": "operator",
          "type": "address"
        },
        {
          "indexed": false,
          "internalType": "bool",
          "name": "approved",
          "type": "bool"
        }
      ],
      "name": "ApprovalForAll",
      "type": "event"
    },
    {
      "anonymous": false,
      "inputs": [
        {
          "indexed": false,
          "internalType": "uint256",
          "name": "_fromTokenId",
          "type": "uint256"
        },
        {
          "indexed": false,
          "internalType": "uint256",
          "name": "_toTokenId",
          "type": "uint256"
        }
      ],
      "name": "BatchMetadataUpdate",
      "type": "event"
    },
    {
      "anonymous": false,
      "inputs": [
        {
          "indexed": false,
          "internalType": "uint256",
          "name": "_tokenId",
          "type": "uint256"
        }
      ],
      "name": "MetadataUpdate",
      "type": "event"
    },
    {
      "anonymous": false,
      "inputs": [
        {
          "indexed": true,
          "internalType": "address",
          "name": "previousOwner",
          "type": "address"
        },
        {
          "indexed": true,
          "internalType": "address",
          "name": "newOwner",
          "type": "address"
        }
      ],
      "name": "OwnershipTransferred",
      "type": "event"
    },
    {
      "anonymous": false,
      "inputs": [
        {
          "indexed": true,
          "internalType": "address",
          "name": "from",
          "type": "address"
        },
        {
          "indexed": true,
          "internalType": "address",
          "name": "to",
          "type": "address"
        },
        {
          "indexed": true,
          "internalType": "uint256",
          "name": "tokenId",
          "type": "uint256"
        }
      ],
      "name": "Transfer",
      "type": "event"
    },
    {
      "inputs": [
        {
          "internalType": "address",
          "name": "to",
          "type": "address"
        },
        {
          "internalType": "uint256",
          "name": "tokenId",
          "type": "uint256"
        }
      ],
      "name": "approve",
      "outputs": [],
      "stateMutability": "nonpayable",
      "type": "function"
    },
    {
      "inputs": [
        {
          "internalType": "address",
          "name": "owner",
          "type": "address"
        }
      ],
      "name": "balanceOf",
      "outputs": [
        {
          "internalType": "uint256",
          "name": "",
          "type": "uint256"
        }
      ],
      "stateMutability": "view",
      "type": "function"
    },
    {
      "inputs": [
        {
          "internalType": "address",
          "name": "_to",
          "type": "address"
        },
        {
          "internalType": "uint256",
          "name": "_count",
          "type": "uint256"
        }
      ],
      "name": "batchMint",
      "outputs": [],
      "stateMutability": "nonpayable",
      "type": "function"
    },
    {
      "inputs": [
        {
          "internalType": "uint256",
          "name": "tokenId",
          "type": "uint256"
        }
      ],
      "name": "getApproved",
      "outputs": [
        {
          "internalType": "address",
          "name": "",
          "type": "address"
        }
      ],
      "stateMutability": "view",
      "type": "function"
    },
    {
      "inputs": [
        {
          "internalType": "address",
          "name": "owner",
          "type": "address"
        },
        {
          "internalType": "address",
          "name": "operator",
          "type": "address"
        }
      ],
      "name": "isApprovedForAll",
      "outputs": [
        {
          "internalType": "bool",
          "name": "",
          "type": "bool"
        }
      ],
      "stateMutability": "view",
      "type": "function"
    },
    {
      "inputs": [
        {
          "internalType": "address",
          "name": "_to",
          "type": "address"
        },
        {
          "internalType": "string",
          "name": "_tokenURI",
          "type": "string"
        }
      ],
      "name": "mintNFT",
      "outputs": [
        {
          "internalType": "uint256",
          "name": "",
          "type": "uint256"
        }
      ],
      "stateMutability": "nonpayable",
      "type": "function"
    },
    {
      "inputs": [],
      "name": "name",
      "outputs": [
        {
          "internalType": "string",
          "name": "",
          "type": "string"
        }
      ],
      "stateMutability": "view",
      "type": "function"
    },
    {
      "inputs": [],
      "name": "owner",
      "outputs": [
        {
          "internalType": "address",
          "name": "",
          "type": "address"
        }
      ],
      "stateMutability": "view",
      "type": "function"
    },
    {
      "inputs": [
        {
          "internalType": "uint256",
          "name": "tokenId",
          "type": "uint256"
        }
      ],
      "name": "ownerOf",
      "outputs": [
        {
          "internalType": "address",
          "name": "",
          "type": "address"
        }
      ],
      "stateMutability": "view",
      "type": "function"
    },
    {
      "inputs": [],
      "name": "renounceOwnership",
      "outputs": [],
      "stateMutability": "nonpayable",
      "type": "function"
    },
    {
      "inputs": [
        {
          "internalType": "address",
          "name": "from",
          "type": "address"
        },
        {
          "internalType": "address",
          "name": "to",
          "type": "address"
        },
        {
          "internalType": "uint256",
          "name": "tokenId",
          "type": "uint256"
        }
      ],
      "name": "safeTransferFrom",
      "outputs": [],
      "stateMutability": "nonpayable",
      "type": "function"
    },
    {
      "inputs": [
        {
          "internalType": "address",
          "name": "from",
          "type": "address"
        },
        {
          "internalType": "address",
          "name": "to",
          "type": "address"
        },
        {
          "internalType": "uint256",
          "name": "tokenId",
          "type": "uint256"
        },
        {
          "internalType": "bytes",
          "name": "data",
          "type": "bytes"
        }
      ],
      "name": "safeTransferFrom",
      "outputs": [],
      "stateMutability": "nonpayable",
      "type": "function"
    },
    {
      "inputs": [
        {
          "internalType": "address",
          "name": "operator",
          "type": "address"
        },
        {
          "internalType": "bool",
          "name": "approved",
          "type": "bool"
        }
      ],
      "name": "setApprovalForAll",
      "outputs": [],
      "stateMutability": "nonpayable",
      "type": "function"
    },
    {
      "inputs": [
        {
          "internalType": "bytes4",
          "name": "interfaceId",
          "type": "bytes4"
        }
      ],
      "name": "supportsInterface",
      "outputs": [
        {
          "internalType": "bool",
          "name": "",
          "type": "bool"
        }
      ],
      "stateMutability": "view",
      "type": "function"
    },
    {
      "inputs": [],
      "name": "symbol",
      "outputs": [
        {
          "internalType": "string",
          "name": "",
          "type": "string"
        }
      ],
      "stateMutability": "view",
      "type": "function"
    },
    {
      "inputs": [
        {
          "internalType": "uint256",
          "name": "tokenId",
          "type": "uint256"
        }
      ],
      "name": "tokenURI",
      "outputs": [
        {
          "internalType": "string",
          "name": "",
          "type": "string"
        }
      ],
      "stateMutability": "view",
      "type": "function"
    },
    {
      "inputs": [
        {
          "internalType": "address",
          "name": "from",
          "type": "address"
        },
        {
          "internalType": "address",
          "name": "to",
          "type": "address"
        },
        {
          "internalType": "uint256",
          "name": "tokenId",
          "type": "uint256"
        }
      ],
      "name": "transferFrom",
      "outputs": [],
      "stateMutability": "nonpayable",
      "type": "function"
    },
    {
      "inputs": [
        {
          "internalType": "address",
          "name": "newOwner",
          "type": "address"
        }
      ],
      "name": "transferOwnership",
      "outputs": [],
      "stateMutability": "nonpayable",
      "type": "function"
    }
  ],
  "bytecode": "0x60806040523480156200001157600080fd5b50336040518060400160405280600a815260200169105d58dd1a5bdb93919560b21b815250604051806040016040528060048152602001631053919560e21b8152508160009081620000649190620001ae565b506001620000738282620001ae565b5050506001600160a01b038116620000a557604051631e4fbdf760e01b81526000600482015260240160405180910390fd5b620000b081620000b7565b506200027a565b600780546001600160a01b038381166001600160a01b0319831681179093556040519116919082907f8be0079c531659141344cd1fd0a4f28419497f9722a3daafe3b4186f6b6457e090600090a35050565b634e487b7160e01b600052604160045260246000fd5b600181811c908216806200013457607f821691505b6020821081036200015557634e487b7160e01b600052602260045260246000fd5b50919050565b601f821115620001a957600081815260208120601f850160051c81016020861015620001845750805b601f850160051c820191505b81811015620001a55782815560010162000190565b5050505b505050565b81516001600160401b03811115620001ca57620001ca62000109565b620001e281620001db84546200011f565b846200015b565b602080601f8311600181146200021a5760008415620002015750858301515b600019600386901b1c1916600185901b178555620001a5565b600085815260208120601f198616915b828110156200024b578886015182559484019460019091019084016200022a565b50858210156200026a5787850151600019600388901b60f8161c191681555b5050505050600190811b01905550565b61146f806200028a6000396000f3fe608060405234801561001057600080fd5b50600436106101165760003560e01c8063715018a6116100a2578063b88d4fde11610071578063b88d4fde14610239578063c87b56dd1461024c578063e985e9c51461025f578063eacabe1414610272578063f2fde38b1461028557600080fd5b8063715018a6146102055780638da5cb5b1461020d57806395d89b411461021e578063a22cb4651461022657600080fd5b806323b872dd116100e957806323b872dd1461019857806342842e0e146101ab57806343508b05146101be5780636352211e146101d157806370a08231146101e457600080fd5b806301ffc9a71461011b57806306fdde0314610143578063081812fc14610158578063095ea7b314610183575b600080fd5b61012e610129366004610f3a565b610298565b60405190151581526020015b60405180910390f35b61014b6102a9565b60405161013a9190610fa7565b61016b610166366004610fba565b61033b565b6040516001600160a01b03909116815260200161013a565b610196610191366004610fef565b610364565b005b6101966101a6366004611019565b610373565b6101966101b9366004611019565b610403565b6101966101cc366004610fef565b610423565b61016b6101df366004610fba565b610471565b6101f76101f2366004611055565b61047c565b60405190815260200161013a565b6101966104c4565b6007546001600160a01b031661016b565b61014b6104d8565b610196610234366004611070565b6104e7565b610196610247366004611138565b6104f2565b61014b61025a366004610fba565b61050a565b61012e61026d3660046111b4565b610515565b6101f76102803660046111e7565b610543565b610196610293366004611055565b610577565b60006102a3826105b5565b92915050565b6060600080546102b890611249565b80601f01602080910402602001604051908101604052809291908181526020018280546102e490611249565b80156103315780601f1061030657610100808354040283529160200191610331565b820191906000526020600020905b81548152906001019060200180831161031457829003601f168201915b5050505050905090565b6000610346826105da565b506000828152600460205260409020546001600160a01b03166102a3565b61036f828233610613565b5050565b6001600160a01b0382166103a257604051633250574960e11b8152600060048201526024015b60405180910390fd5b60006103af838333610620565b9050836001600160a01b0316816001600160a01b0316146103fd576040516364283d7b60e01b81526001600160a01b0380861660048301526024820184905282166044820152606401610399565b50505050565b61041e838383604051806020016040528060008152506104f2565b505050565b60005b8181101561041e5761045e836040518060400160405280600e81526020016d697066733a2f2f516d546573742f60901b815250610543565b508061046981611283565b915050610426565b60006102a3826105da565b60006001600160a01b0382166104a8576040516322718ad960e21b815260006004820152602401610399565b506001600160a01b031660009081526003602052604090205490565b6104cc610719565b6104d66000610746565b565b6060600180546102b890611249565b61036f338383610798565b6104fd848484610373565b6103fd3385858585610837565b60606102a382610962565b6001600160a01b03918216600090815260056020908152604080832093909416825291909152205460ff1690565b600880546000918261055483611283565b90915550506008546105668482610a73565b6105708184610ad8565b9392505050565b61057f610719565b6001600160a01b0381166105a957604051631e4fbdf760e01b815260006004820152602401610399565b6105b281610746565b50565b60006001600160e01b03198216632483248360e11b14806102a357506102a382610b28565b6000818152600260205260408120546001600160a01b0316806102a357604051637e27328960e01b815260048101849052602401610399565b61041e8383836001610b78565b6000828152600260205260408120546001600160a01b039081169083161561064d5761064d818486610c7e565b6001600160a01b0381161561068b5761066a600085600080610b78565b6001600160a01b038116600090815260036020526040902080546000190190555b6001600160a01b038516156106ba576001600160a01b0385166000908152600360205260409020805460010190555b60008481526002602052604080822080546001600160a01b0319166001600160a01b0389811691821790925591518793918516917fddf252ad1be2c89b69c2b068fc378daa952ba7f163c4a11628f55a4df523b3ef91a4949350505050565b6007546001600160a01b031633146104d65760405163118cdaa760e01b8152336004820152602401610399565b600780546001600160a01b038381166001600160a01b0319831681179093556040519116919082907f8be0079c531659141344cd1fd0a4f28419497f9722a3daafe3b4186f6b6457e090600090a35050565b6001600160a01b0382166107ca57604051630b61174360e31b81526001600160a01b0383166004820152602401610399565b6001600160a01b03838116600081815260056020908152604080832094871680845294825291829020805460ff191686151590811790915591519182527f17307eab39ab6107e8899845ad3d59bd9653f200f220920489ca2b5937696c31910160405180910390a3505050565b6001600160a01b0383163b1561095b57604051630a85bd0160e11b81526001600160a01b0384169063150b7a02906108799088908890879087906004016112aa565b6020604051808303816000875af19250505080156108b4575060408051601f3d908101601f191682019092526108b1918101906112e7565b60015b61091d573d8080156108e2576040519150601f19603f3d011682016040523d82523d6000602084013e6108e7565b606091505b50805160000361091557604051633250574960e11b81526001600160a01b0385166004820152602401610399565b805160208201fd5b6001600160e01b03198116630a85bd0160e11b1461095957604051633250574960e11b81526001600160a01b0385166004820152602401610399565b505b5050505050565b606061096d826105da565b506000828152600660205260408120805461098790611249565b80601f01602080910402602001604051908101604052809291908181526020018280546109b390611249565b8015610a005780601f106109d557610100808354040283529160200191610a00565b820191906000526020600020905b8154815290600101906020018083116109e357829003601f168201915b505050505090506000610a1e60408051602081019091526000815290565b90508051600003610a30575092915050565b815115610a62578082604051602001610a4a929190611304565b60405160208183030381529060405292505050919050565b610a6b84610ce2565b949350505050565b6001600160a01b038216610a9d57604051633250574960e11b815260006004820152602401610399565b6000610aab83836000610620565b90506001600160a01b0381161561041e576040516339e3563760e11b815260006004820152602401610399565b6000828152600660205260409020610af08282611379565b506040518281527ff8e1a15aba9398e019f0b49df1a4fde98ee17ae345cb5f6b5e2c27f5033e8ce79060200160405180910390a15050565b60006001600160e01b031982166380ac58cd60e01b1480610b5957506001600160e01b03198216635b5e139f60e01b145b806102a357506301ffc9a760e01b6001600160e01b03198316146102a3565b8080610b8c57506001600160a01b03821615155b15610c4e576000610b9c846105da565b90506001600160a01b03831615801590610bc85750826001600160a01b0316816001600160a01b031614155b8015610bdb5750610bd98184610515565b155b15610c045760405163a9fbf51f60e01b81526001600160a01b0384166004820152602401610399565b8115610c4c5783856001600160a01b0316826001600160a01b03167f8c5be1e5ebec7d5bd14f71427d1e84f3dd0314c0f7b2291e5b200ac8c7c3b92560405160405180910390a45b505b5050600090815260046020526040902080546001600160a01b0319166001600160a01b0392909216919091179055565b610c89838383610d56565b61041e576001600160a01b038316610cb757604051637e27328960e01b815260048101829052602401610399565b60405163177e802f60e01b81526001600160a01b038316600482015260248101829052604401610399565b6060610ced826105da565b506000610d0560408051602081019091526000815290565b90506000815111610d255760405180602001604052806000815250610570565b80610d2f84610db9565b604051602001610d40929190611304565b6040516020818303038152906040529392505050565b60006001600160a01b03831615801590610a6b5750826001600160a01b0316846001600160a01b03161480610d905750610d908484610515565b80610a6b5750506000908152600460205260409020546001600160a01b03908116911614919050565b60606000610dc683610e4c565b600101905060008167ffffffffffffffff811115610de657610de66110ac565b6040519080825280601f01601f191660200182016040528015610e10576020820181803683370190505b5090508181016020015b600019016f181899199a1a9b1b9c1cb0b131b232b360811b600a86061a8153600a8504945084610e1a57509392505050565b60008072184f03e93ff9f4daa797ed6e38ed64bf6a1f0160401b8310610e8b5772184f03e93ff9f4daa797ed6e38ed64bf6a1f0160401b830492506040015b6d04ee2d6d415b85acef81000000008310610eb7576d04ee2d6d415b85acef8100000000830492506020015b662386f26fc100008310610ed557662386f26fc10000830492506010015b6305f5e1008310610eed576305f5e100830492506008015b6127108310610f0157612710830492506004015b60648310610f13576064830492506002015b600a83106102a35760010192915050565b6001600160e01b0319811681146105b257600080fd5b600060208284031215610f4c57600080fd5b813561057081610f24565b60005b83811015610f72578181015183820152602001610f5a565b50506000910152565b60008151808452610f93816020860160208601610f57565b601f01601f19169290920160200192915050565b6020815260006105706020830184610f7b565b600060208284031215610fcc57600080fd5b5035919050565b80356001600160a01b0381168114610fea57600080fd5b919050565b6000806040838503121561100257600080fd5b61100b83610fd3565b946020939093013593505050565b60008060006060848603121561102e57600080fd5b61103784610fd3565b925061104560208501610fd3565b9150604084013590509250925092565b60006020828403121561106757600080fd5b61057082610fd3565b6000806040838503121561108357600080fd5b61108c83610fd3565b9150602083013580151581146110a157600080fd5b809150509250929050565b634e487b7160e01b600052604160045260246000fd5b600067ffffffffffffffff808411156110dd576110dd6110ac565b604051601f8501601f19908116603f01168101908282118183101715611105576111056110ac565b8160405280935085815286868601111561111e57600080fd5b858560208301376000602087830101525050509392505050565b6000806000806080858703121561114e57600080fd5b61115785610fd3565b935061116560208601610fd3565b925060408501359150606085013567ffffffffffffffff81111561118857600080fd5b8501601f8101871361119957600080fd5b6111a8878235602084016110c2565b91505092959194509250565b600080604083850312156111c757600080fd5b6111d083610fd3565b91506111de60208401610fd3565b90509250929050565b600080604083850312156111fa57600080fd5b61120383610fd3565b9150602083013567ffffffffffffffff81111561121f57600080fd5b8301601f8101851361123057600080fd5b61123f858235602084016110c2565b9150509250929050565b600181811c9082168061125d57607f821691505b60208210810361127d57634e487b7160e01b600052602260045260246000fd5b50919050565b6000600182016112a357634e487b7160e01b600052601160045260246000fd5b5060010190565b6001600160a01b03858116825284166020820152604081018390526080606082018190526000906112dd90830184610f7b565b9695505050505050565b6000602082840312156112f957600080fd5b815161057081610f24565b60008351611316818460208801610f57565b83519083019061132a818360208801610f57565b01949350505050565b601f82111561041e57600081815260208120601f850160051c8101602086101561135a5750805b601f850160051c820191505b8181101561095957828155600101611366565b815167ffffffffffffffff811115611393576113936110ac565b6113a7816113a18454611249565b84611333565b602080601f8311600181146113dc57600084156113c45750858301515b600019600386901b1c1916600185901b178555610959565b600085815260208120601f198616915b8281101561140b578886015182559484019460019091019084016113ec565b50858210156114295787850151600019600388901b60f8161c191681555b5050505050600190811b0190555056fea2646970667358221220baf921c95f694890a35d4349eead28f5de45d8d8b683e70782993ded072d9f1064736f6c63430008140033",
  "linkReferences": {},
  "deployedLinkReferences": {}
}