{
  "_format": "hh-sol-artifact-1",
  "contractName": "NFTAuction",
  "sourceName": "contracts/NFTAuction.sol",
  "abi": [
    {
      "inputs": [],
      "stateMutability": "nonpayable",
      "type": "constructor"
    },
    {
      "inputs": [
        {
          "internalType": "address",
          "name": "owner",
          "type": "address"
        }
      ],
      "name": "OwnableInvalidOwner",
      "type": "error"
    },
    {
      "inputs": [
        {
          "internalType": "address",
          "name": "account",
          "type": "address"
        }
      ],
      "name": "OwnableUnauthorizedAccount",
      "type": "error"
    },
    {
      "inputs": [],
      "name": "ReentrancyGuardReentrantCall",
      "type": "error"
    },
    {
      "anonymous": false,
      "inputs": [
        {
          "indexed": true,
          "internalType": "uint256",
          "name": "auctionId",
          "type": "uint256"
        }
      ],
      "name": "AuctionCancelled",
      "type": "event"
    },
    {
      "anonymous": false,
      "inputs": [
        {
          "indexed": true,
          "internalType": "uint256",
          "name": "auctionId",
          "type": "uint256"
        },
        {
          "indexed": true,
          "internalType": "address",
          "name": "seller",
          "type": "address"
        },
        {
          "indexed": false,
          "internalType": "address",
          "name": "nftContract",
          "type": "address"
        },
        {
          "indexed": false,
          "internalType": "uint256",
          "name": "tokenId",
          "type": "uint256"
        },
        {
          "indexed": false,
          "internalType": "uint256",
          "name": "startPrice",
          "type": "uint256"
        },
        {
          "indexed": false,
          "internalType": "uint256",
          "name": "endTime",
          "type": "uint256"
        }
      ],
      "name": "AuctionCreated",
      "type": "event"
    },
    {
      "anonymous": false,
      "inputs": [
        {
          "indexed": true,
          "internalType": "uint256",
          "name": "auctionId",
          "type": "uint256"
        },
        {
          "indexed": true,
          "internalType": "address",
          "name": "winner",
          "type": "address"
        },
        {
          "indexed": false,
          "internalType": "uint256",
          "name": "amount",
          "type": "uint256"
        }
      ],
      "name": "AuctionEnded",
      "type": "event"
    },
    {
      "anonymous": false,
      "inputs": [
        {
          "indexed": true,
          "internalType": "uint256",
          "name": "auctionId",
          "type": "uint256"
        },
        {
          "indexed": true,
          "internalType": "address",
          "name": "bidder",
          "type": "address"
        },
        {
          "indexed": false,
          "internalType": "uint256",
          "name": "amount",
          "type": "uint256"
        }
      ],
      "name": "BidPlaced",
      "type": "event"
    },
    {
      "anonymous": false,
      "inputs": [
        {
          "indexed": true,
          "internalType": "address",
          "name": "previousOwner",
          "type": "address"
        },
        {
          "indexed": true,
          "internalType": "address",
          "name": "newOwner",
          "type": "address"
        }
      ],
      "name": "OwnershipTransferred",
      "type": "event"
    },
    {
      "anonymous": false,
      "inputs": [
        {
          "indexed": true,
          "internalType": "address",
          "name": "user",
          "type": "address"
        },
        {
          "indexed": false,
          "internalType": "uint256",
          "name": "amount",
          "type": "uint256"
        }
      ],
      "name": "Withdrawal",
      "type": "event"
    },
    {
      "inputs": [],
      "name": "auctionCounter",
      "outputs": [
        {
          "internalType": "uint256",
          "name": "",
          "type": "uint256"
        }
      ],
      "stateMutability": "view",
      "type": "function"
    },
    {
      "inputs": [
        {
          "internalType": "uint256",
          "name": "",
          "type": "uint256"
        }
      ],
      "name": "auctions",
      "outputs": [
        {
          "internalType": "address",
          "name": "seller",
          "type": "address"
        },
        {
          "internalType": "address",
          "name": "nftContract",
          "type": "address"
        },
        {
          "internalType": "uint256",
          "name": "tokenId",
          "type": "uint256"
        },
        {
          "internalType": "uint256",
          "name": "startPrice",
          "type": "uint256"
        },
        {
          "internalType": "uint256",
          "name": "highestBid",
          "type": "uint256"
        },
        {
          "internalType": "address",
          "name": "highestBidder",
          "type": "address"
        },
        {
          "internalType": "uint256",
          "name": "endTime",
          "type": "uint256"
        },
        {
          "internalType": "bool",
          "name": "ended",
          "type": "bool"
        },
        {
          "internalType": "bool",
          "name": "cancelled",
          "type": "bool"
        }
      ],
      "stateMutability": "view",
      "type": "function"
    },
    {
      "inputs": [
        {
          "internalType": "uint256",
          "name": "_auctionId",
          "type": "uint256"
        }
      ],
      "name": "cancelAuction",
      "outputs": [],
      "stateMutability": "nonpayable",
      "type": "function"
    },
    {
      "inputs": [
        {
          "internalType": "address",
          "name": "_nftContract",
          "type": "address"
        },
        {
          "internalType": "uint256",
          "name": "_tokenId",
          "type": "uint256"
        },
        {
          "internalType": "uint256",
          "name": "_startPrice",
          "type": "uint256"
        },
        {
          "internalType": "uint256",
          "name": "_duration",
          "type": "uint256"
        }
      ],
      "name": "createAuction",
      "outputs": [
        {
          "internalType": "uint256",
          "name": "",
          "type": "uint256"
        }
      ],
      "stateMutability": "nonpayable",
      "type": "function"
    },
    {
      "inputs": [
        {
          "internalType": "uint256",
          "name": "_auctionId",
          "type": "uint256"
        }
      ],
      "name": "endAuction",
      "outputs": [],
      "stateMutability": "nonpayable",
      "type": "function"
    },
    {
      "inputs": [
        {
          "internalType": "uint256",
          "name": "_auctionId",
          "type": "uint256"
        }
      ],
      "name": "getAuction",
      "outputs": [
        {
          "internalType": "address",
          "name": "seller",
          "type": "address"
        },
        {
          "internalType": "address",
          "name": "nftContract",
          "type": "address"
        },
        {
          "internalType": "uint256",
          "name": "tokenId",
          "type": "uint256"
        },
        {
          "internalType": "uint256",
          "name": "startPrice",
          "type": "uint256"
        },
        {
          "internalType": "uint256",
          "name": "highestBid",
          "type": "uint256"
        },
        {
          "internalType": "address",
          "name": "highestBidder",
          "type": "address"
        },
        {
          "internalType": "uint256",
          "name": "endTime",
          "type": "uint256"
        },
        {
          "internalType": "bool",
          "name": "ended",
          "type": "bool"
        },
        {
          "internalType": "bool",
          "name": "cancelled",
          "type": "bool"
        }
      ],
      "stateMutability": "view",
      "type": "function"
    },
    {
      "inputs": [
        {
          "internalType": "uint256",
          "name": "_auctionId",
          "type": "uint256"
        }
      ],
      "name": "getTimeRemaining",
      "outputs": [
        {
          "internalType": "uint256",
          "name": "",
          "type": "uint256"
        }
      ],
      "stateMutability": "view",
      "type": "function"
    },
    {
      "inputs": [
        {
          "internalType": "uint256",
          "name": "_auctionId",
          "type": "uint256"
        }
      ],
      "name": "isAuctionActive",
      "outputs": [
        {
          "internalType": "bool",
          "name": "",
          "type": "bool"
        }
      ],
      "stateMutability": "view",
      "type": "function"
    },
    {
      "inputs": [],
      "name": "owner",
      "outputs": [
        {
          "internalType": "address",
          "name": "",
          "type": "address"
        }
      ],
      "stateMutability": "view",
      "type": "function"
    },
    {
      "inputs": [
        {
          "internalType": "address",
          "name": "",
          "type": "address"
        }
      ],
      "name": "pendingWithdrawals",
      "outputs": [
        {
          "internalType": "uint256",
          "name": "",
          "type": "uint256"
        }
      ],
      "stateMutability": "view",
      "type": "function"
    },
    {
      "inputs": [
        {
          "internalType": "uint256",
          "name": "_auctionId",
          "type": "uint256"
        }
      ],
      "name": "placeBid",
      "outputs": [],
      "stateMutability": "payable",
      "type": "function"
    },
    {
      "inputs": [],
      "name": "platformFeePercentage",
      "outputs": [
        {
          "internalType": "uint256",
          "name": "",
          "type": "uint256"
        }
      ],
      "stateMutability": "view",
      "type": "function"
    },
    {
      "inputs": [],
      "name": "platformFees",
      "outputs": [
        {
          "internalType": "uint256",
          "name": "",
          "type": "uint256"
        }
      ],
      "stateMutability": "view",
      "type": "function"
    },
    {
      "inputs": [],
      "name": "renounceOwnership",
      "outputs": [],
      "stateMutability": "nonpayable",
      "type": "function"
    },
    {
      "inputs": [
        {
          "internalType": "address",
          "name": "newOwner",
          "type": "address"
        }
      ],
      "name": "transferOwnership",
      "outputs": [],
      "stateMutability": "nonpayable",
      "type": "function"
    },
    {
      "inputs": [
        {
          "internalType": "uint256",
          "name": "_newFee",
          "type": "uint256"
        }
      ],
      "name": "updatePlatformFee",
      "outputs": [],
      "stateMutability": "nonpayable",
      "type": "function"
    },
    {
      "inputs": [],
      "name": "withdraw",
      "outputs": [],
      "stateMutability": "nonpayable",
      "type": "function"
    },
    {
      "inputs": [],
      "name": "withdrawPlatformFees",
      "outputs": [],
      "stateMutability": "nonpayable",
      "type": "function"
    }
  ],
  "bytecode": "0x608060405260fa60055534801561001557600080fd5b506001600055338061004157604051631e4fbdf760e01b81526000600482015260240160405180910390fd5b61004a81610050565b506100a2565b600180546001600160a01b038381166001600160a01b0319831681179093556040519116919082907f8be0079c531659141344cd1fd0a4f28419497f9722a3daafe3b4186f6b6457e090600090a35050565b6117d6806100b16000396000f3fe6080604052600436106101095760003560e01c80639979ef4511610095578063cdd78cfc11610064578063cdd78cfc146103a3578063d0b7830b146103b9578063e71f7b15146103ce578063f2fde38b146103fe578063f3f437031461041e57600080fd5b80639979ef451461033a578063a7e766441461034d578063aa0b598814610363578063b9a2de3a1461038357600080fd5b8063715018a6116100dc578063715018a61461024157806378bd7935146102565780638cd42991146102d25780638da5cb5b146102f257806396b5a7551461031a57600080fd5b8063194a4e7e1461010e5780633ccfd60b14610137578063571a26a01461014e57806361beb1d714610221575b600080fd5b34801561011a57600080fd5b5061012460065481565b6040519081526020015b60405180910390f35b34801561014357600080fd5b5061014c61044b565b005b34801561015a57600080fd5b506101c8610169366004611623565b6002602081905260009182526040909120805460018201549282015460038301546004840154600585015460068601546007909601546001600160a01b0395861697861696949593949293909116919060ff8082169161010090041689565b604080516001600160a01b039a8b168152988a1660208a01528801969096526060870194909452608086019290925290941660a084015260c083019390935291151560e08201529015156101008201526101200161012e565b34801561022d57600080fd5b5061012461023c366004611651565b610588565b34801561024d57600080fd5b5061014c610b4e565b34801561026257600080fd5b506101c8610271366004611623565b6000908152600260208190526040909120805460018201549282015460038301546004840154600585015460068601546007909601546001600160a01b03958616989786169794969395929492909116929160ff8083169261010090041690565b3480156102de57600080fd5b506101246102ed366004611623565b610b60565b3480156102fe57600080fd5b506001546040516001600160a01b03909116815260200161012e565b34801561032657600080fd5b5061014c610335366004611623565b610b99565b61014c610348366004611623565b610dc0565b34801561035957600080fd5b5061012460045481565b34801561036f57600080fd5b5061014c61037e366004611623565b6110bb565b34801561038f57600080fd5b5061014c61039e366004611623565b611112565b3480156103af57600080fd5b5061012460055481565b3480156103c557600080fd5b5061014c6113f8565b3480156103da57600080fd5b506103ee6103e9366004611623565b6114ff565b604051901515815260200161012e565b34801561040a57600080fd5b5061014c61041936600461168c565b61153f565b34801561042a57600080fd5b5061012461043936600461168c565b60036020526000908152604090205481565b61045361157a565b33600090815260036020526040902054806104ac5760405162461bcd60e51b81526020600482015260146024820152734e6f2066756e647320746f20776974686472617760601b60448201526064015b60405180910390fd5b336000818152600360205260408082208290555190919083908381818185875af1925050503d80600081146104fd576040519150601f19603f3d011682016040523d82523d6000602084013e610502565b606091505b50509050806105455760405162461bcd60e51b815260206004820152600f60248201526e151c985b9cd9995c8819985a5b1959608a1b60448201526064016104a3565b60405182815233907f7fcf532c15f0a6db0bd6d0e038bea71d30d808c7d98cb3bf7268a95bf5081b659060200160405180910390a250506105866001600055565b565b600061059261157a565b6001600160a01b0385166105df5760405162461bcd60e51b8152602060048201526014602482015273125b9d985b1a59081391950818dbdb9d1c9858dd60621b60448201526064016104a3565b6000831161063a5760405162461bcd60e51b815260206004820152602260248201527f5374617274207072696365206d7573742062652067726561746572207468616e604482015261020360f41b60648201526084016104a3565b610e1082101561068c5760405162461bcd60e51b815260206004820181905260248201527f4475726174696f6e206d757374206265206174206c65617374203120686f757260448201526064016104a3565b62278d008211156106df5760405162461bcd60e51b815260206004820152601e60248201527f4475726174696f6e2063616e6e6f74206578636565642033302064617973000060448201526064016104a3565b6040516331a9108f60e11b815260048101859052859033906001600160a01b03831690636352211e90602401602060405180830381865afa158015610728573d6000803e3d6000fd5b505050506040513d601f19601f8201168201806040525081019061074c91906116a9565b6001600160a01b03161461079b5760405162461bcd60e51b8152602060048201526016602482015275165bdd48191bdb89dd081bdddb881d1a1a5cc813919560521b60448201526064016104a3565b60405163020604bf60e21b81526004810186905230906001600160a01b0383169063081812fc90602401602060405180830381865afa1580156107e2573d6000803e3d6000fd5b505050506040513d601f19601f8201168201806040525081019061080691906116a9565b6001600160a01b03161480610884575060405163e985e9c560e01b81523360048201523060248201526001600160a01b0382169063e985e9c590604401602060405180830381865afa158015610860573d6000803e3d6000fd5b505050506040513d601f19601f8201168201806040525081019061088491906116c6565b6108de5760405162461bcd60e51b815260206004820152602560248201527f436f6e7472616374206e6f7420617070726f76656420746f207472616e7366656044820152641c8813919560da1b60648201526084016104a3565b6040516323b872dd60e01b81526001600160a01b038216906323b872dd9061090e90339030908a906004016116e8565b600060405180830381600087803b15801561092857600080fd5b505af115801561093c573d6000803e3d6000fd5b5050600480546000935091508261095283611722565b9091555090506000610964854261173b565b9050604051806101200160405280336001600160a01b03168152602001896001600160a01b031681526020018881526020018781526020016000815260200160006001600160a01b03168152602001828152602001600015158152602001600015158152506002600084815260200190815260200160002060008201518160000160006101000a8154816001600160a01b0302191690836001600160a01b0316021790555060208201518160010160006101000a8154816001600160a01b0302191690836001600160a01b0316021790555060408201518160020155606082015181600301556080820151816004015560a08201518160050160006101000a8154816001600160a01b0302191690836001600160a01b0316021790555060c0820151816006015560e08201518160070160006101000a81548160ff0219169083151502179055506101008201518160070160016101000a81548160ff021916908315150217905550905050336001600160a01b0316827f06b9e486c68303eb64052e0493f906f3d93a1b7149b6b8dcff221aebd16c35138a8a8a86604051610b3094939291906001600160a01b0394909416845260208401929092526040830152606082015260800190565b60405180910390a350915050610b466001600055565b949350505050565b610b566115a4565b61058660006115d1565b600081815260026020526040812060068101544210610b825750600092915050565b428160060154610b929190611754565b9392505050565b610ba161157a565b600081815260026020526040902080546001600160a01b03163314610c015760405162461bcd60e51b815260206004820152601660248201527513db9b1e481cd95b1b195c8818d85b8818d85b98d95b60521b60448201526064016104a3565b600781015460ff1615610c4e5760405162461bcd60e51b8152602060048201526015602482015274105d58dd1a5bdb88185b1c9958591e48195b991959605a1b60448201526064016104a3565b6007810154610100900460ff1615610ca85760405162461bcd60e51b815260206004820152601960248201527f41756374696f6e20616c72656164792063616e63656c6c65640000000000000060448201526064016104a3565b60058101546001600160a01b031615610d035760405162461bcd60e51b815260206004820152601e60248201527f43616e6e6f742063616e63656c2077697468206163746976652062696473000060448201526064016104a3565b60078101805461ff0019166101001790556001810154815460028301546040516323b872dd60e01b81526001600160a01b039384169384936323b872dd93610d5493309392909216916004016116e8565b600060405180830381600087803b158015610d6e57600080fd5b505af1158015610d82573d6000803e3d6000fd5b50506040518592507f2809c7e17bf978fbc7194c0a694b638c4215e9140cacc6c38ca36010b45697df9150600090a25050610dbd6001600055565b50565b610dc861157a565b6000818152600260205260409020600781015460ff1615610e1f5760405162461bcd60e51b8152602060048201526011602482015270105d58dd1a5bdb881a185cc8195b991959607a1b60448201526064016104a3565b6007810154610100900460ff1615610e715760405162461bcd60e51b8152602060048201526015602482015274105d58dd1a5bdb881dd85cc818d85b98d95b1b1959605a1b60448201526064016104a3565b80600601544210610ec45760405162461bcd60e51b815260206004820152601860248201527f41756374696f6e2074696d65206861732065787069726564000000000000000060448201526064016104a3565b80546001600160a01b03163303610f115760405162461bcd60e51b815260206004820152601160248201527014d95b1b195c8818d85b9b9bdd08189a59607a1b60448201526064016104a3565b60003411610f6b5760405162461bcd60e51b815260206004820152602160248201527f42696420616d6f756e74206d7573742062652067726561746572207468616e206044820152600360fc1b60648201526084016104a3565b8060040154600003610fc8578060030154341015610fc35760405162461bcd60e51b81526020600482015260156024820152744269642062656c6f7720737461727420707269636560581b60448201526064016104a3565b611011565b806004015434116110115760405162461bcd60e51b8152602060048201526013602482015272084d2c840dcdee840d0d2ced040cadcdeeaced606b1b60448201526064016104a3565b60058101546001600160a01b03161561105b57600481015460058201546001600160a01b03166000908152600360205260408120805490919061105590849061173b565b90915550505b34600482018190556005820180546001600160a01b031916339081179091556040519182529083907f0e54eff26401bf69b81b26f60bd85ef47f5d85275c1d268d84f68d6897431c479060200160405180910390a350610dbd6001600055565b6110c36115a4565b6103e881111561110d5760405162461bcd60e51b81526020600482015260156024820152744665652063616e6e6f74206578636565642031302560581b60448201526064016104a3565b600555565b61111a61157a565b6000818152600260205260409020600781015460ff16156111755760405162461bcd60e51b8152602060048201526015602482015274105d58dd1a5bdb88185b1c9958591e48195b991959605a1b60448201526064016104a3565b6007810154610100900460ff16156111c75760405162461bcd60e51b8152602060048201526015602482015274105d58dd1a5bdb881dd85cc818d85b98d95b1b1959605a1b60448201526064016104a3565b806006015442101561121b5760405162461bcd60e51b815260206004820152601960248201527f41756374696f6e20686173206e6f7420656e646564207965740000000000000060448201526064016104a3565b60078101805460ff1916600190811790915581015460058201546001600160a01b0391821691166112b557815460028301546040516323b872dd60e01b81526001600160a01b03848116936323b872dd9361127e933093909216916004016116e8565b600060405180830381600087803b15801561129857600080fd5b505af11580156112ac573d6000803e3d6000fd5b505050506113ec565b600582015460028301546040516323b872dd60e01b81526001600160a01b03848116936323b872dd936112f0933093909216916004016116e8565b600060405180830381600087803b15801561130a57600080fd5b505af115801561131e573d6000803e3d6000fd5b50505050600061271060055484600401546113399190611767565b611343919061177e565b905060008184600401546113579190611754565b9050816006600082825461136b919061173b565b909155505083546001600160a01b03166000908152600360205260408120805483929061139990849061173b565b9091555050600584015460048501546040519081526001600160a01b039091169086907fd2aa34a4fdbbc6dff6a3e56f46e0f3ae2a31d7785ff3487aa5c95c642acea5019060200160405180910390a350505b5050610dbd6001600055565b6114006115a4565b61140861157a565b600654806114585760405162461bcd60e51b815260206004820152601c60248201527f4e6f20706c6174666f726d206665657320746f2077697468647261770000000060448201526064016104a3565b600060068190556001546040516001600160a01b039091169083908381818185875af1925050503d80600081146114ab576040519150601f19603f3d011682016040523d82523d6000602084013e6114b0565b606091505b50509050806114f35760405162461bcd60e51b815260206004820152600f60248201526e151c985b9cd9995c8819985a5b1959608a1b60448201526064016104a3565b50506105866001600055565b6000818152600260205260408120600781015460ff1615801561152c57506007810154610100900460ff16155b8015610b92575060060154421092915050565b6115476115a4565b6001600160a01b03811661157157604051631e4fbdf760e01b8152600060048201526024016104a3565b610dbd816115d1565b60026000540361159d57604051633ee5aeb560e01b815260040160405180910390fd5b6002600055565b6001546001600160a01b031633146105865760405163118cdaa760e01b81523360048201526024016104a3565b600180546001600160a01b038381166001600160a01b0319831681179093556040519116919082907f8be0079c531659141344cd1fd0a4f28419497f9722a3daafe3b4186f6b6457e090600090a35050565b60006020828403121561163557600080fd5b5035919050565b6001600160a01b0381168114610dbd57600080fd5b6000806000806080858703121561166757600080fd5b84356116728161163c565b966020860135965060408601359560600135945092505050565b60006020828403121561169e57600080fd5b8135610b928161163c565b6000602082840312156116bb57600080fd5b8151610b928161163c565b6000602082840312156116d857600080fd5b81518015158114610b9257600080fd5b6001600160a01b039384168152919092166020820152604081019190915260600190565b634e487b7160e01b600052601160045260246000fd5b6000600182016117345761173461170c565b5060010190565b8082018082111561174e5761174e61170c565b92915050565b8181038181111561174e5761174e61170c565b808202811582820484141761174e5761174e61170c565b60008261179b57634e487b7160e01b600052601260045260246000fd5b50049056fea26469706673582212206827e2383268448a591c2cd44df82df8087000833e0b357e73fdfa66ba24031c64736f6c63430008140033",
  "linkReferences": {},
  "deployedLinkReferences": {}
}